{
  "contractName": "DataStorage",
  "abi": [
    {
      "anonymous": false,
      "inputs": [
        {
          "indexed": true,
          "internalType": "address",
          "name": "sender",
          "type": "address"
        },
        {
          "indexed": false,
          "internalType": "string",
          "name": "data",
          "type": "string"
        }
      ],
      "name": "DataStored",
      "type": "event"
    },
    {
      "inputs": [
        {
          "internalType": "uint256",
          "name": "",
          "type": "uint256"
        }
      ],
      "name": "dataList",
      "outputs": [
        {
          "internalType": "address",
          "name": "sender",
          "type": "address"
        },
        {
          "internalType": "string",
          "name": "data",
          "type": "string"
        }
      ],
      "stateMutability": "view",
      "type": "function",
      "constant": true
    },
    {
      "inputs": [
        {
          "internalType": "string",
          "name": "_data",
          "type": "string"
        }
      ],
      "name": "storeData",
      "outputs": [],
      "stateMutability": "nonpayable",
      "type": "function"
    },
    {
      "inputs": [
        {
          "internalType": "uint256",
          "name": "index",
          "type": "uint256"
        }
      ],
      "name": "getData",
      "outputs": [
        {
          "internalType": "address",
          "name": "",
          "type": "address"
        },
        {
          "internalType": "string",
          "name": "",
          "type": "string"
        }
      ],
      "stateMutability": "view",
      "type": "function",
      "constant": true
    },
    {
      "inputs": [],
      "name": "getDataCount",
      "outputs": [
        {
          "internalType": "uint256",
          "name": "",
          "type": "uint256"
        }
      ],
      "stateMutability": "view",
      "type": "function",
      "constant": true
    }
  ],
  "bytecode": "0x608060405234801561001057600080fd5b506109b4806100206000396000f3fe608060405234801561001057600080fd5b506004361061004c5760003560e01c80630178fe3f146100515780637355a42414610082578063af4a74cf146100a0578063fb218f5f146100d1575b600080fd5b61006b6004803603810190610066919061061e565b6100ed565b60405161007992919061071e565b60405180910390f35b61008a610284565b60405161009791906107b0565b60405180910390f35b6100ba60048036038101906100b5919061061e565b610290565b6040516100c892919061071e565b60405180910390f35b6100eb60048036038101906100e691906105dd565b61036c565b005b600060606000805490508310610138576040517f08c379a000000000000000000000000000000000000000000000000000000000815260040161012f90610770565b60405180910390fd5b60008381548110610172577f4e487b7100000000000000000000000000000000000000000000000000000000600052603260045260246000fd5b906000526020600020906002020160000160009054906101000a900473ffffffffffffffffffffffffffffffffffffffff16600084815481106101de577f4e487b7100000000000000000000000000000000000000000000000000000000600052603260045260246000fd5b90600052602060002090600202016001018080546101fb906108c6565b80601f0160208091040260200160405190810160405280929190818152602001828054610227906108c6565b80156102745780601f1061024957610100808354040283529160200191610274565b820191906000526020600020905b81548152906001019060200180831161025757829003601f168201915b5050505050905091509150915091565b60008080549050905090565b600081815481106102a057600080fd5b90600052602060002090600202016000915090508060000160009054906101000a900473ffffffffffffffffffffffffffffffffffffffff16908060010180546102e9906108c6565b80601f0160208091040260200160405190810160405280929190818152602001828054610315906108c6565b80156103625780601f1061033757610100808354040283529160200191610362565b820191906000526020600020905b81548152906001019060200180831161034557829003601f168201915b5050505050905082565b60008151116103b0576040517f08c379a00000000000000000000000000000000000000000000000000000000081526004016103a790610790565b60405180910390fd5b600060405180604001604052803373ffffffffffffffffffffffffffffffffffffffff16815260200183815250908060018154018082558091505060019003906000526020600020906002020160009091909190915060008201518160000160006101000a81548173ffffffffffffffffffffffffffffffffffffffff021916908373ffffffffffffffffffffffffffffffffffffffff16021790555060208201518160010190805190602001906104699291906104bd565b5050503373ffffffffffffffffffffffffffffffffffffffff167f4b33dafb50dac5530c30aca4e4069fd67a18220888b874b8519558d1769d49a1826040516104b2919061074e565b60405180910390a250565b8280546104c9906108c6565b90600052602060002090601f0160209004810192826104eb5760008555610532565b82601f1061050457805160ff1916838001178555610532565b82800160010185558215610532579182015b82811115610531578251825591602001919060010190610516565b5b50905061053f9190610543565b5090565b5b8082111561055c576000816000905550600101610544565b5090565b600061057361056e846107fc565b6107cb565b90508281526020810184848401111561058b57600080fd5b610596848285610884565b509392505050565b600082601f8301126105af57600080fd5b81356105bf848260208601610560565b91505092915050565b6000813590506105d781610967565b92915050565b6000602082840312156105ef57600080fd5b600082013567ffffffffffffffff81111561060957600080fd5b6106158482850161059e565b91505092915050565b60006020828403121561063057600080fd5b600061063e848285016105c8565b91505092915050565b61065081610848565b82525050565b60006106618261082c565b61066b8185610837565b935061067b818560208601610893565b61068481610956565b840191505092915050565b600061069c601283610837565b91507f496e646578206f7574206f662072616e676500000000000000000000000000006000830152602082019050919050565b60006106dc601483610837565b91507f446174612063616e6e6f7420626520656d7074790000000000000000000000006000830152602082019050919050565b6107188161087a565b82525050565b60006040820190506107336000830185610647565b81810360208301526107458184610656565b90509392505050565b600060208201905081810360008301526107688184610656565b905092915050565b600060208201905081810360008301526107898161068f565b9050919050565b600060208201905081810360008301526107a9816106cf565b9050919050565b60006020820190506107c5600083018461070f565b92915050565b6000604051905081810181811067ffffffffffffffff821117156107f2576107f1610927565b5b8060405250919050565b600067ffffffffffffffff82111561081757610816610927565b5b601f19601f8301169050602081019050919050565b600081519050919050565b600082825260208201905092915050565b60006108538261085a565b9050919050565b600073ffffffffffffffffffffffffffffffffffffffff82169050919050565b6000819050919050565b82818337600083830152505050565b60005b838110156108b1578082015181840152602081019050610896565b838111156108c0576000848401525b50505050565b600060028204905060018216806108de57607f821691505b602082108114156108f2576108f16108f8565b5b50919050565b7f4e487b7100000000000000000000000000000000000000000000000000000000600052602260045260246000fd5b7f4e487b7100000000000000000000000000000000000000000000000000000000600052604160045260246000fd5b6000601f19601f8301169050919050565b6109708161087a565b811461097b57600080fd5b5056fea26469706673582212206e4077cee1f6d4e2a8753929c1fd17eb480fbc30e691e405a8ed97ef1a28562564736f6c63430008000033",
  "immutableReferences": {},
  "source": "// SPDX-License-Identifier: MIT\r\npragma solidity ^0.8.0;\r\n\r\ncontract DataStorage {\r\n    struct Data {\r\n        address sender;\r\n        string data;\r\n    }\r\n\r\n    Data[] public dataList;\r\n\r\n    event DataStored(address indexed sender, string data);\r\n\r\n    function storeData(string memory _data) external {\r\n        require(bytes(_data).length > 0, \"Data cannot be empty\"); // Ensure data is not empty\r\n\r\n        // Store the data along with the sender's address\r\n        dataList.push(Data(msg.sender, _data));\r\n\r\n        // Emit an event to signify data storage\r\n        emit DataStored(msg.sender, _data);\r\n    }\r\n\r\n    function getData(uint256 index) external view returns (address, string memory) {\r\n        require(index < dataList.length, \"Index out of range\");\r\n        return (dataList[index].sender, dataList[index].data);\r\n    }\r\n\r\n    function getDataCount() external view returns (uint256) {\r\n        return dataList.length;\r\n    }\r\n}\r\n",
  "sourcePath": "C:\\Users\\User\\Desktop\\Research Paper\\contracts\\DataStorage.sol",
  "compiler": {
    "name": "solc",
    "version": "0.8.0+commit.c7dfd78e.Emscripten.clang"
  },
  "schemaVersion": "3.4.16",
  "updatedAt": "2024-05-04T16:15:01.992Z",
  "networkType": "ethereum",
  "devdoc": {
    "kind": "dev",
    "methods": {},
    "version": 1
  },
  "userdoc": {
    "kind": "user",
    "methods": {},
    "version": 1
  }
}